{
  "_format": "hh-sol-artifact-1",
  "contractName": "StakingAET",
  "sourceName": "contracts/StakingAET.sol",
  "abi": [
    {
      "inputs": [],
      "stateMutability": "nonpayable",
      "type": "constructor"
    },
    {
      "inputs": [
        {
          "internalType": "address",
          "name": "spender",
          "type": "address"
        },
        {
          "internalType": "uint256",
          "name": "allowance",
          "type": "uint256"
        },
        {
          "internalType": "uint256",
          "name": "needed",
          "type": "uint256"
        }
      ],
      "name": "ERC20InsufficientAllowance",
      "type": "error"
    },
    {
      "inputs": [
        {
          "internalType": "address",
          "name": "sender",
          "type": "address"
        },
        {
          "internalType": "uint256",
          "name": "balance",
          "type": "uint256"
        },
        {
          "internalType": "uint256",
          "name": "needed",
          "type": "uint256"
        }
      ],
      "name": "ERC20InsufficientBalance",
      "type": "error"
    },
    {
      "inputs": [
        {
          "internalType": "address",
          "name": "approver",
          "type": "address"
        }
      ],
      "name": "ERC20InvalidApprover",
      "type": "error"
    },
    {
      "inputs": [
        {
          "internalType": "address",
          "name": "receiver",
          "type": "address"
        }
      ],
      "name": "ERC20InvalidReceiver",
      "type": "error"
    },
    {
      "inputs": [
        {
          "internalType": "address",
          "name": "sender",
          "type": "address"
        }
      ],
      "name": "ERC20InvalidSender",
      "type": "error"
    },
    {
      "inputs": [
        {
          "internalType": "address",
          "name": "spender",
          "type": "address"
        }
      ],
      "name": "ERC20InvalidSpender",
      "type": "error"
    },
    {
      "anonymous": false,
      "inputs": [
        {
          "indexed": true,
          "internalType": "address",
          "name": "owner",
          "type": "address"
        },
        {
          "indexed": true,
          "internalType": "address",
          "name": "spender",
          "type": "address"
        },
        {
          "indexed": false,
          "internalType": "uint256",
          "name": "value",
          "type": "uint256"
        }
      ],
      "name": "Approval",
      "type": "event"
    },
    {
      "anonymous": false,
      "inputs": [
        {
          "indexed": true,
          "internalType": "uint256",
          "name": "_walletId",
          "type": "uint256"
        },
        {
          "indexed": false,
          "internalType": "address",
          "name": "_address",
          "type": "address"
        }
      ],
      "name": "CreateWallet",
      "type": "event"
    },
    {
      "anonymous": false,
      "inputs": [
        {
          "indexed": true,
          "internalType": "uint256",
          "name": "_walletId",
          "type": "uint256"
        },
        {
          "indexed": false,
          "internalType": "uint256",
          "name": "amount",
          "type": "uint256"
        }
      ],
      "name": "DepositWallet",
      "type": "event"
    },
    {
      "anonymous": false,
      "inputs": [
        {
          "indexed": true,
          "internalType": "uint256",
          "name": "_walletId",
          "type": "uint256"
        },
        {
          "indexed": false,
          "internalType": "uint256",
          "name": "totalAmount",
          "type": "uint256"
        }
      ],
      "name": "StakingEthEvent",
      "type": "event"
    },
    {
      "anonymous": false,
      "inputs": [
        {
          "indexed": true,
          "internalType": "address",
          "name": "from",
          "type": "address"
        },
        {
          "indexed": true,
          "internalType": "address",
          "name": "to",
          "type": "address"
        },
        {
          "indexed": false,
          "internalType": "uint256",
          "name": "value",
          "type": "uint256"
        }
      ],
      "name": "Transfer",
      "type": "event"
    },
    {
      "anonymous": false,
      "inputs": [
        {
          "indexed": true,
          "internalType": "uint256",
          "name": "_walletId",
          "type": "uint256"
        }
      ],
      "name": "UnStakingEthEvent",
      "type": "event"
    },
    {
      "anonymous": false,
      "inputs": [
        {
          "indexed": true,
          "internalType": "uint256",
          "name": "_walletId",
          "type": "uint256"
        },
        {
          "indexed": false,
          "internalType": "address",
          "name": "_to",
          "type": "address"
        },
        {
          "indexed": false,
          "internalType": "uint256",
          "name": "amount",
          "type": "uint256"
        }
      ],
      "name": "WithdrawWallet",
      "type": "event"
    },
    {
      "stateMutability": "payable",
      "type": "fallback"
    },
    {
      "inputs": [
        {
          "internalType": "uint256",
          "name": "_walletId",
          "type": "uint256"
        },
        {
          "internalType": "uint256",
          "name": "stakedAmount",
          "type": "uint256"
        }
      ],
      "name": "StakingEth",
      "outputs": [],
      "stateMutability": "nonpayable",
      "type": "function"
    },
    {
      "inputs": [
        {
          "internalType": "uint256",
          "name": "_walletId",
          "type": "uint256"
        }
      ],
      "name": "UnStake",
      "outputs": [],
      "stateMutability": "nonpayable",
      "type": "function"
    },
    {
      "inputs": [
        {
          "internalType": "address",
          "name": "owner",
          "type": "address"
        },
        {
          "internalType": "address",
          "name": "spender",
          "type": "address"
        }
      ],
      "name": "allowance",
      "outputs": [
        {
          "internalType": "uint256",
          "name": "",
          "type": "uint256"
        }
      ],
      "stateMutability": "view",
      "type": "function"
    },
    {
      "inputs": [
        {
          "internalType": "address",
          "name": "spender",
          "type": "address"
        },
        {
          "internalType": "uint256",
          "name": "value",
          "type": "uint256"
        }
      ],
      "name": "approve",
      "outputs": [
        {
          "internalType": "bool",
          "name": "",
          "type": "bool"
        }
      ],
      "stateMutability": "nonpayable",
      "type": "function"
    },
    {
      "inputs": [
        {
          "internalType": "address",
          "name": "account",
          "type": "address"
        }
      ],
      "name": "balanceOf",
      "outputs": [
        {
          "internalType": "uint256",
          "name": "",
          "type": "uint256"
        }
      ],
      "stateMutability": "view",
      "type": "function"
    },
    {
      "inputs": [
        {
          "internalType": "uint256",
          "name": "_walletId",
          "type": "uint256"
        }
      ],
      "name": "calculateCurrentReward",
      "outputs": [
        {
          "internalType": "uint256",
          "name": "",
          "type": "uint256"
        }
      ],
      "stateMutability": "view",
      "type": "function"
    },
    {
      "inputs": [],
      "name": "createWallet",
      "outputs": [
        {
          "internalType": "uint256",
          "name": "",
          "type": "uint256"
        },
        {
          "internalType": "address",
          "name": "",
          "type": "address"
        }
      ],
      "stateMutability": "nonpayable",
      "type": "function"
    },
    {
      "inputs": [
        {
          "internalType": "uint256",
          "name": "_walletId",
          "type": "uint256"
        }
      ],
      "name": "currentStake",
      "outputs": [
        {
          "internalType": "uint256",
          "name": "",
          "type": "uint256"
        }
      ],
      "stateMutability": "view",
      "type": "function"
    },
    {
      "inputs": [],
      "name": "decimals",
      "outputs": [
        {
          "internalType": "uint8",
          "name": "",
          "type": "uint8"
        }
      ],
      "stateMutability": "view",
      "type": "function"
    },
    {
      "inputs": [
        {
          "internalType": "uint256",
          "name": "_walletId",
          "type": "uint256"
        }
      ],
      "name": "getIsStaked",
      "outputs": [
        {
          "internalType": "bool",
          "name": "",
          "type": "bool"
        }
      ],
      "stateMutability": "view",
      "type": "function"
    },
    {
      "inputs": [
        {
          "internalType": "address",
          "name": "walletAdr",
          "type": "address"
        }
      ],
      "name": "getWalletId",
      "outputs": [
        {
          "internalType": "uint256",
          "name": "",
          "type": "uint256"
        }
      ],
      "stateMutability": "view",
      "type": "function"
    },
    {
      "inputs": [],
      "name": "getWallets",
      "outputs": [
        {
          "internalType": "uint256[]",
          "name": "",
          "type": "uint256[]"
        }
      ],
      "stateMutability": "view",
      "type": "function"
    },
    {
      "inputs": [
        {
          "internalType": "uint256",
          "name": "",
          "type": "uint256"
        }
      ],
      "name": "isStaked",
      "outputs": [
        {
          "internalType": "bool",
          "name": "",
          "type": "bool"
        }
      ],
      "stateMutability": "view",
      "type": "function"
    },
    {
      "inputs": [],
      "name": "name",
      "outputs": [
        {
          "internalType": "string",
          "name": "",
          "type": "string"
        }
      ],
      "stateMutability": "view",
      "type": "function"
    },
    {
      "inputs": [],
      "name": "rewardAmountPerBlock",
      "outputs": [
        {
          "internalType": "uint256",
          "name": "",
          "type": "uint256"
        }
      ],
      "stateMutability": "view",
      "type": "function"
    },
    {
      "inputs": [
        {
          "internalType": "uint256",
          "name": "",
          "type": "uint256"
        }
      ],
      "name": "stakingWallets",
      "outputs": [
        {
          "internalType": "contract Wallet",
          "name": "wallet",
          "type": "address"
        },
        {
          "internalType": "uint256",
          "name": "stakedValue",
          "type": "uint256"
        },
        {
          "internalType": "uint256",
          "name": "sinceBlock",
          "type": "uint256"
        },
        {
          "internalType": "uint256",
          "name": "untilBlock",
          "type": "uint256"
        },
        {
          "internalType": "uint256",
          "name": "totalReward",
          "type": "uint256"
        }
      ],
      "stateMutability": "view",
      "type": "function"
    },
    {
      "inputs": [],
      "name": "symbol",
      "outputs": [
        {
          "internalType": "string",
          "name": "",
          "type": "string"
        }
      ],
      "stateMutability": "view",
      "type": "function"
    },
    {
      "inputs": [],
      "name": "totalSupply",
      "outputs": [
        {
          "internalType": "uint256",
          "name": "",
          "type": "uint256"
        }
      ],
      "stateMutability": "view",
      "type": "function"
    },
    {
      "inputs": [
        {
          "internalType": "address",
          "name": "to",
          "type": "address"
        },
        {
          "internalType": "uint256",
          "name": "value",
          "type": "uint256"
        }
      ],
      "name": "transfer",
      "outputs": [
        {
          "internalType": "bool",
          "name": "",
          "type": "bool"
        }
      ],
      "stateMutability": "nonpayable",
      "type": "function"
    },
    {
      "inputs": [
        {
          "internalType": "address",
          "name": "from",
          "type": "address"
        },
        {
          "internalType": "address",
          "name": "to",
          "type": "address"
        },
        {
          "internalType": "uint256",
          "name": "value",
          "type": "uint256"
        }
      ],
      "name": "transferFrom",
      "outputs": [
        {
          "internalType": "bool",
          "name": "",
          "type": "bool"
        }
      ],
      "stateMutability": "nonpayable",
      "type": "function"
    },
    {
      "inputs": [
        {
          "internalType": "uint256",
          "name": "_walletId",
          "type": "uint256"
        }
      ],
      "name": "walletBalance",
      "outputs": [
        {
          "internalType": "uint256",
          "name": "",
          "type": "uint256"
        }
      ],
      "stateMutability": "view",
      "type": "function"
    },
    {
      "inputs": [
        {
          "internalType": "uint256",
          "name": "_walletId",
          "type": "uint256"
        }
      ],
      "name": "walletDeposit",
      "outputs": [],
      "stateMutability": "payable",
      "type": "function"
    },
    {
      "inputs": [
        {
          "internalType": "address",
          "name": "",
          "type": "address"
        }
      ],
      "name": "walletIDMapping",
      "outputs": [
        {
          "internalType": "uint256",
          "name": "",
          "type": "uint256"
        }
      ],
      "stateMutability": "view",
      "type": "function"
    },
    {
      "inputs": [
        {
          "internalType": "uint256",
          "name": "_walletId",
          "type": "uint256"
        },
        {
          "internalType": "address payable",
          "name": "_to",
          "type": "address"
        },
        {
          "internalType": "uint256",
          "name": "amount",
          "type": "uint256"
        }
      ],
      "name": "walletWithdraw",
      "outputs": [],
      "stateMutability": "nonpayable",
      "type": "function"
    },
    {
      "inputs": [
        {
          "internalType": "address",
          "name": "",
          "type": "address"
        },
        {
          "internalType": "uint256",
          "name": "",
          "type": "uint256"
        }
      ],
      "name": "wallets_mapping",
      "outputs": [
        {
          "internalType": "uint256",
          "name": "",
          "type": "uint256"
        }
      ],
      "stateMutability": "view",
      "type": "function"
    },
    {
      "stateMutability": "payable",
      "type": "receive"
    }
  ],
  "bytecode": "0x60806040523480156200001157600080fd5b506040518060400160405280600a81526020016920a2a7a7102a37b5b2b760b11b8152506040518060400160405280600381526020016210515560ea1b815250816003908162000062919062000121565b50600462000071828262000121565b505050620001ed565b634e487b7160e01b600052604160045260246000fd5b600181811c90821680620000a557607f821691505b602082108103620000c657634e487b7160e01b600052602260045260246000fd5b50919050565b601f8211156200011c576000816000526020600020601f850160051c81016020861015620000f75750805b601f850160051c820191505b81811015620001185782815560010162000103565b5050505b505050565b81516001600160401b038111156200013d576200013d6200007a565b62000155816200014e845462000090565b84620000cc565b602080601f8311600181146200018d5760008415620001745750858301515b600019600386901b1c1916600185901b17855562000118565b600085815260208120601f198616915b82811015620001be578886015182559484019460019091019084016200019d565b5085821015620001dd5787850151600019600388901b60f8161c191681555b5050505050600190811b01905550565b611d5280620001fd6000396000f3fe6080604052600436106101825760003560e01c8063603af6cb116100d5578063ab2b421411610084578063c832021711610061578063c83202171461047d578063db7a4605146104cf578063dd62ed3e146104f1578063e304757e1461053757005b8063ab2b421414610400578063b6394f381461042d578063baa51f861461044d57005b806395d89b41116100b257806395d89b41146103ab578063980aa146146103c0578063a9059cbb146103e057005b8063603af6cb1461033557806367104d811461035557806370a082311461037557005b806321a53911116101315780633e4fdae91161010e5780633e4fdae9146102bf5780634bd54650146102df5780635a8ff969146102ff57005b806321a539111461026357806323b872dd14610283578063313ce567146102a357005b806311ebbf241161015f57806311ebbf24146101f957806317667ca71461022b57806318160ddd1461024e57005b806306fdde031461018b57806307953130146101b6578063095ea7b3146101c957005b3661018957005b005b34801561019757600080fd5b506101a0610567565b6040516101ad9190611798565b60405180910390f35b6101896101c43660046117e7565b6105f9565b3480156101d557600080fd5b506101e96101e4366004611818565b610842565b60405190151581526020016101ad565b34801561020557600080fd5b5061020e61085c565b604080519283526001600160a01b039091166020830152016101ad565b34801561023757600080fd5b50610240600a81565b6040519081526020016101ad565b34801561025a57600080fd5b50600254610240565b34801561026f57600080fd5b5061018961027e366004611844565b610a4e565b34801561028f57600080fd5b506101e961029e366004611866565b610c69565b3480156102af57600080fd5b50604051601281526020016101ad565b3480156102cb57600080fd5b506102406102da3660046117e7565b610c8d565b3480156102eb57600080fd5b506102406102fa3660046117e7565b610cff565b34801561030b57600080fd5b5061024061031a3660046118a7565b6001600160a01b031660009081526006602052604090205490565b34801561034157600080fd5b506101896103503660046117e7565b610dbe565b34801561036157600080fd5b506102406103703660046117e7565b611015565b34801561038157600080fd5b506102406103903660046118a7565b6001600160a01b031660009081526020819052604090205490565b3480156103b757600080fd5b506101a06110ad565b3480156103cc57600080fd5b506101896103db3660046118c4565b6110bc565b3480156103ec57600080fd5b506101e96103fb366004611818565b6112fc565b34801561040c57600080fd5b5061024061041b3660046118a7565b60066020526000908152604090205481565b34801561043957600080fd5b50610240610448366004611818565b61130a565b34801561045957600080fd5b506101e96104683660046117e7565b60056020526000908152604090205460ff1681565b34801561048957600080fd5b5061049d6104983660046117e7565b61133b565b604080516001600160a01b0390961686526020860194909452928401919091526060830152608082015260a0016101ad565b3480156104db57600080fd5b506104e4611386565b6040516101ad91906118eb565b3480156104fd57600080fd5b5061024061050c36600461192f565b6001600160a01b03918216600090815260016020908152604080832093909416825291909152205490565b34801561054357600080fd5b506101e96105523660046117e7565b60009081526005602052604090205460ff1690565b60606003805461057690611968565b80601f01602080910402602001604051908101604052809291908181526020018280546105a290611968565b80156105ef5780601f106105c4576101008083540402835291602001916105ef565b820191906000526020600020905b8154815290600101906020018083116105d257829003601f168201915b5050505050905090565b803361064c5760405162461bcd60e51b815260206004820152601460248201527f4e6f7420616e2076616c6964206164647265737300000000000000000000000060448201526064015b60405180910390fd5b600060088281548110610661576106616119a2565b60009182526020918290206040805160a081018252600590930290910180546001600160a01b03168084526001820154848601526002820154848401526003820154606085015260049182015460808501528251638da5cb5b60e01b8152925193955033949093638da5cb5b9380840193908290030181865afa1580156106ec573d6000803e3d6000fd5b505050506040513d601f19601f8201168201806040525081019061071091906119b8565b6001600160a01b0316146107665760405162461bcd60e51b815260206004820152601760248201527f4e6f74206f776e6572206f66207468652077616c6c65740000000000000000006044820152606401610643565b60006008848154811061077b5761077b6119a2565b6000918252602082206005909102018054604080517fd0e30db000000000000000000000000000000000000000000000000000000000815290519294506001600160a01b039091169263d0e30db0923492600480820193929182900301818588803b1580156107e957600080fd5b505af11580156107fd573d6000803e3d6000fd5b5050505050837f042e9e410c4143ec6d49062983285b5e9c76fc52580372bc64824861653c99fd3460405161083491815260200190565b60405180910390a250505050565b6000336108508185856113e6565b60019150505b92915050565b600080600060405161086d9061178b565b604051809103906000f080158015610889573d6000803e3d6000fd5b506040805160a0810182526001600160a01b0383811682526000602083018181529383018181526060840182815260808501838152600880546001808201835582875297517ff3f7a9fe364faab93b216da50a3214154f22a0a2b415b23a84c8169e8b636ee3600590920291820180547fffffffffffffffffffffffff000000000000000000000000000000000000000016919098161790965596517ff3f7a9fe364faab93b216da50a3214154f22a0a2b415b23a84c8169e8b636ee486015591517ff3f7a9fe364faab93b216da50a3214154f22a0a2b415b23a84c8169e8b636ee5850155517ff3f7a9fe364faab93b216da50a3214154f22a0a2b415b23a84c8169e8b636ee6840155517ff3f7a9fe364faab93b216da50a3214154f22a0a2b415b23a84c8169e8b636ee790920191909155915492935090916109ce91906119eb565b6040516001600160a01b038416815290915081907e147bfe9dda573ae762e2319074f1217b3603aab5d16abe9edc2d826d1a5da89060200160405180910390a26001600160a01b03821660009081526006602090815260408083208490553383526007825282208054600181018255908352912001819055939092509050565b600060088381548110610a6357610a636119a2565b60009182526020808320600590920290910180546040805163722713f760e01b815290519295506001600160a01b039091169263722713f7926004808401938290030181865afa158015610abb573d6000803e3d6000fd5b505050506040513d601f19601f82011682018060405250810190610adf91906119fe565b9050828111610b565760405162461bcd60e51b815260206004820152602e60248201527f57616c6c65742042616c616e6365206e6565647320746f20626520626967676560448201527f72207374616b6564416d6f756e740000000000000000000000000000000000006064820152608401610643565b815460405163f3fef3a360e01b8152306004820152602481018590526001600160a01b039091169063f3fef3a390604401600060405180830381600087803b158015610ba157600080fd5b505af1158015610bb5573d6000803e3d6000fd5b505050506000610bc485610cff565b905080836004016000828254610bda9190611a17565b9091555050426002840155600060038401819055600184018054869290610c02908490611a17565b909155505060008581526005602052604090819020805460ff19166001908117909155840154905186917f3815a1cd9965419a2e3302dfca661c2b600ef18b56ba42ffc48d00d99e8633eb91610c5a91815260200190565b60405180910390a25050505050565b600033610c778582856113f8565b610c8285858561148f565b506001949350505050565b60008060088381548110610ca357610ca36119a2565b60009182526020918290206040805160a081018252600590930290910180546001600160a01b03168352600181015493830184905260028101549183019190915260038101546060830152600401546080909101529392505050565b60008060088381548110610d1557610d156119a2565b600091825260208083206040805160a081018252600590940290910180546001600160a01b031684526001810154928401929092526002820154908301819052600382015460608401526004909101546080830152909250610d7790426119eb565b905060006064600a838560200151610d8f9190611a2a565b610d999190611a2a565b610da39190611a41565b9050808360800151610db59190611a17565b95945050505050565b8033610e0c5760405162461bcd60e51b815260206004820152601460248201527f4e6f7420616e2076616c696420616464726573730000000000000000000000006044820152606401610643565b600060088281548110610e2157610e216119a2565b60009182526020918290206040805160a081018252600590930290910180546001600160a01b03168084526001820154848601526002820154848401526003820154606085015260049182015460808501528251638da5cb5b60e01b8152925193955033949093638da5cb5b9380840193908290030181865afa158015610eac573d6000803e3d6000fd5b505050506040513d601f19601f82011682018060405250810190610ed091906119b8565b6001600160a01b031614610f265760405162461bcd60e51b815260206004820152601760248201527f4e6f74206f776e6572206f66207468652077616c6c65740000000000000000006044820152606401610643565b600060088481548110610f3b57610f3b6119a2565b906000526020600020906005020190508060030154600014610f9f5760405162461bcd60e51b815260206004820152601060248201527f416c726561647920756e7374616b6564000000000000000000000000000000006044820152606401610643565b6000610faa85610cff565b9050610fb63382611507565b600060048301819055600283018190554260038401556001830181905585815260056020526040808220805460ff191690555186917f0e982cb653cca1e2060237fbef314f3068ceaaf1ed009772748604276210b78391a25050505050565b6000806008838154811061102b5761102b6119a2565b600091825260209182902060059091020180546040805163722713f760e01b815290519294506001600160a01b039091169263722713f7926004808401938290030181865afa158015611082573d6000803e3d6000fd5b505050506040513d601f19601f820116820180604052508101906110a691906119fe565b9392505050565b60606004805461057690611968565b823361110a5760405162461bcd60e51b815260206004820152601460248201527f4e6f7420616e2076616c696420616464726573730000000000000000000000006044820152606401610643565b60006008828154811061111f5761111f6119a2565b60009182526020918290206040805160a081018252600590930290910180546001600160a01b03168084526001820154848601526002820154848401526003820154606085015260049182015460808501528251638da5cb5b60e01b8152925193955033949093638da5cb5b9380840193908290030181865afa1580156111aa573d6000803e3d6000fd5b505050506040513d601f19601f820116820180604052508101906111ce91906119b8565b6001600160a01b0316146112245760405162461bcd60e51b815260206004820152601760248201527f4e6f74206f776e6572206f66207468652077616c6c65740000000000000000006044820152606401610643565b600060088681548110611239576112396119a2565b60009182526020909120600590910201805460405163f3fef3a360e01b81526001600160a01b0388811660048301526024820188905292935091169063f3fef3a390604401600060405180830381600087803b15801561129857600080fd5b505af11580156112ac573d6000803e3d6000fd5b5050604080516001600160a01b0389168152602081018890528993507f8be9825d11a262a520b3eeeefc7cac9d3a6a2c09f89a44a79faedb2df376b5fa92500160405180910390a2505050505050565b60003361085081858561148f565b6007602052816000526040600020818154811061132657600080fd5b90600052602060002001600091509150505481565b6008818154811061134b57600080fd5b6000918252602090912060059091020180546001820154600283015460038401546004909401546001600160a01b0390931694509092909185565b336000908152600760209081526040918290208054835181840281018401909452808452606093928301828280156105ef57602002820191906000526020600020905b8154815260200190600101908083116113c9575050505050905090565b6113f38383836001611541565b505050565b6001600160a01b038381166000908152600160209081526040808320938616835292905220546000198114611489578181101561147a576040517ffb8f41b20000000000000000000000000000000000000000000000000000000081526001600160a01b03841660048201526024810182905260448101839052606401610643565b61148984848484036000611541565b50505050565b6001600160a01b0383166114d2576040517f96c6fd1e00000000000000000000000000000000000000000000000000000000815260006004820152602401610643565b6001600160a01b0382166114fc5760405163ec442f0560e01b815260006004820152602401610643565b6113f3838383611648565b6001600160a01b0382166115315760405163ec442f0560e01b815260006004820152602401610643565b61153d60008383611648565b5050565b6001600160a01b038416611584576040517fe602df0500000000000000000000000000000000000000000000000000000000815260006004820152602401610643565b6001600160a01b0383166115c7576040517f94280d6200000000000000000000000000000000000000000000000000000000815260006004820152602401610643565b6001600160a01b038085166000908152600160209081526040808320938716835292905220829055801561148957826001600160a01b0316846001600160a01b03167f8c5be1e5ebec7d5bd14f71427d1e84f3dd0314c0f7b2291e5b200ac8c7c3b9258460405161163a91815260200190565b60405180910390a350505050565b6001600160a01b0383166116735780600260008282546116689190611a17565b909155506116fe9050565b6001600160a01b038316600090815260208190526040902054818110156116df576040517fe450d38c0000000000000000000000000000000000000000000000000000000081526001600160a01b03851660048201526024810182905260448101839052606401610643565b6001600160a01b03841660009081526020819052604090209082900390555b6001600160a01b03821661171a57600280548290039055611739565b6001600160a01b03821660009081526020819052604090208054820190555b816001600160a01b0316836001600160a01b03167fddf252ad1be2c89b69c2b068fc378daa952ba7f163c4a11628f55a4df523b3ef8360405161177e91815260200190565b60405180910390a3505050565b6102b980611a6483390190565b60006020808352835180602085015260005b818110156117c6578581018301518582016040015282016117aa565b506000604082860101526040601f19601f8301168501019250505092915050565b6000602082840312156117f957600080fd5b5035919050565b6001600160a01b038116811461181557600080fd5b50565b6000806040838503121561182b57600080fd5b823561183681611800565b946020939093013593505050565b6000806040838503121561185757600080fd5b50508035926020909101359150565b60008060006060848603121561187b57600080fd5b833561188681611800565b9250602084013561189681611800565b929592945050506040919091013590565b6000602082840312156118b957600080fd5b81356110a681611800565b6000806000606084860312156118d957600080fd5b83359250602084013561189681611800565b6020808252825182820181905260009190848201906040850190845b8181101561192357835183529284019291840191600101611907565b50909695505050505050565b6000806040838503121561194257600080fd5b823561194d81611800565b9150602083013561195d81611800565b809150509250929050565b600181811c9082168061197c57607f821691505b60208210810361199c57634e487b7160e01b600052602260045260246000fd5b50919050565b634e487b7160e01b600052603260045260246000fd5b6000602082840312156119ca57600080fd5b81516110a681611800565b634e487b7160e01b600052601160045260246000fd5b81810381811115610856576108566119d5565b600060208284031215611a1057600080fd5b5051919050565b80820180821115610856576108566119d5565b8082028115828204841417610856576108566119d5565b600082611a5e57634e487b7160e01b600052601260045260246000fd5b50049056fe608060405234801561001057600080fd5b50600080546001600160a01b03191632179055610287806100326000396000f3fe6080604052600436106100405760003560e01c8063722713f7146100495780638da5cb5b14610069578063d0e30db0146100a1578063f3fef3a3146100a957005b3661004757005b005b34801561005557600080fd5b506040514781526020015b60405180910390f35b34801561007557600080fd5b50600054610089906001600160a01b031681565b6040516001600160a01b039091168152602001610060565b6100476100c9565b3480156100b557600080fd5b506100476100c4366004610219565b6100f6565b60405134907f4d6ce1e535dbade1c23defba91e23b8f791ce5edc0cc320257a2b364e4e3842690600090a2565b6000546001600160a01b031632146101555760405162461bcd60e51b815260206004820152601760248201527f4f6e6c79206f776e65722063616e20776974686472617700000000000000000060448201526064015b60405180910390fd5b80478181116101a65760405162461bcd60e51b815260206004820152601260248201527f496e73756666696369656e742066756e64730000000000000000000000000000604482015260640161014c565b6040516001600160a01b0385169084156108fc029085906000818181858888f193505050501580156101dc573d6000803e3d6000fd5b506040516001600160a01b0385169084907f8353ffcac0876ad14e226d9783c04540bfebf13871e868157d2a391cad98e91890600090a350505050565b6000806040838503121561022c57600080fd5b82356001600160a01b038116811461024357600080fd5b94602093909301359350505056fea2646970667358221220ab72fd305f89e41b208591334b7fc5883ba0d0794f308d0419eb47231aa639db64736f6c63430008170033a26469706673582212202926c0f1d85f216578ab08203338f785c58612e8ee8da64fa854dd821736edb864736f6c63430008170033",
  "linkReferences": {},
  "deployedLinkReferences": {}
}